:100000000C9462000C948A000C948A000C948A0070
:100010000C948A000C948A000C948A000C948A0038
:100020000C948A000C948A000C948A000C948A0028
:100030000C948A000C948A000C948A000C948A0018
:100040000C9467050C948A000C9435050C940F05EC
:100050000C948A000C948A000C948A000C948A00F8
:100060000C948A000C948A000000000024002700F1
:100070002A0000000000250028002B0000000008D6
:10008000000201000003040700000000000000005F
:1000900000000000230026002900040404040404D6
:1000A0000404020202020202030303030303010227
:1000B00004081020408001020408102001020408F6
:1000C0001020B10511241FBECFEFD8E0DEBFCDBF99
:1000D00011E0A0E0B1E0EAEAF3E102C005900D9280
:1000E000A435B107D9F722E0A4E5B1E001C01D9223
:1000F000A532B207E1F710E0C2E6D0E004C02197D4
:10010000FE010E94CD09C136D107C9F70E941C0625
:100110000C94D3090C940000CF92DF92EF92FF92DF
:10012000CF93DF93B0910102A0E08111AB2F8091BA
:10013000020290E0880F991FAC0140575F4FC090BA
:100140000702D0900802E0900902F0900A0230E025
:1001500020E0FA01C591D491E881B90190E080E0F6
:10016000EB23EA130AC02F5F3F4F6C157D058E0508
:100170009F0578F36FEF7FEFCB01DF91CF91FF9079
:10018000EF90DF90CF900895AF92BF92CF92DF9221
:10019000EF92FF920F931F93CF93DF936C017B013C
:1001A0008B01040F151FEB015E01AE18BF08C017CD
:1001B000D10759F06991D601ED91FC910190F08140
:1001C000E02DC6010995892B79F7C501DF91CF9103
:1001D0001F910F91FF90EF90DF90CF90BF90AF9065
:1001E0000895FC01538D448D252F30E0842F90E03D
:1001F000821B930B541710F0CF9608950197089522
:10020000FC01918D828D981761F0A28DAE0FBF2FEA
:10021000B11D5D968C91928D9F5F9F73928F90E040
:1002200008958FEF9FEF0895FC01918D828D9817AF
:1002300031F0828DE80FF11D858D90E008958FEFEC
:100240009FEF0895FC01918D228D892F90E0805CB5
:100250009F4F821B91098F73992708958DE591E037
:100260000E94220121E0892B09F420E0822F0895C9
:1002700080E090E0892B29F00E942E0181110C94DE
:1002800000000895FC01A48DA80FB92FB11DA35A39
:10029000BF4F2C91848D90E001968F739927848FA6
:1002A000A689B7892C93A089B1898C9183708064C9
:1002B0008C93938D848D981306C00288F389E02D6A
:1002C00080818F7D80830895EF92FF920F931F931B
:1002D000CF93DF93EC0181E0888F9B8D8C8D9813F9
:1002E0001AC0E889F989808185FF15C09FB7F89405
:1002F000EE89FF896083E889F98980818370806451
:1003000080839FBF81E090E0DF91CF911F910F919B
:10031000FF90EF900895F62E0B8D10E00F5F1F4FAA
:100320000F731127E02E8C8D8E110CC00FB607FCB9
:10033000FACFE889F989808185FFF5CFCE010E9447
:100340004201F1CFEB8DEC0FFD2FF11DE35AFF4F72
:10035000F0829FB7F8940B8FEA89FB8980818062D5
:10036000CFCFCF93DF93EC01888D8823B9F0AA8992
:10037000BB89E889F9898C9185FD03C0808186FD60
:100380000DC00FB607FCF7CF8C9185FFF2CF8081AF
:1003900085FFEDCFCE010E944201E9CFDF91CF91E1
:1003A000089590E0FC01E458FF4F2491FC01E255D0
:1003B000FF4F3491FC01E656FF4FE491EE23C9F064
:1003C000222339F0233001F1A8F4213019F1223031
:1003D00029F1F0E0EE0FFF1FEE58FF4FA591B49109
:1003E0008FB7F894EC91611126C030953E233C9371
:1003F0008FBF08952730A9F02830C9F0243049F77D
:10040000809180008F7D03C0809180008F778093E2
:100410008000DFCF84B58F7784BDDBCF84B58F7D3F
:10042000FBCF8091B0008F778093B000D2CF8091C6
:10043000B0008F7DF9CF3E2BDACFCF93DF9390E0E2
:10044000FC01E255FF4F249186569F4FFC01849199
:100450008823D1F090E0880F991FFC01E859FF4FE5
:10046000A591B491FC01EE58FF4FC591D491623033
:1004700071F49FB7F8943C91822F809583238C93DD
:10048000E8812E2B28839FBFDF91CF9108958FB7EE
:10049000F894EC912E2B2C938FBFF6CF3FB7F894A6
:1004A0008091550190915601A0915701B09158014A
:1004B00026B5A89B05C02F3F19F00196A11DB11DBF
:1004C0003FBFBA2FA92F982F8827BC01CD01620FFB
:1004D000711D811D911D42E0660F771F881F991FB6
:1004E0004A95D1F708958F929F92AF92BF92CF9283
:1004F000DF92EF92FF924B015C010E944E026B0172
:100500007C010E944E026C197D098E099F09683E8C
:10051000734081059105A8F321E0821A9108A10892
:10052000B10888EEC80E83E0D81EE11CF11C8114CE
:100530009104A104B10429F7FF90EF90DF90CF90D0
:10054000BF90AF909F908F900895CF92DF92EF92DF
:10055000FF920F931F93CF93DF93CDB7DEB7C054B5
:10056000D1400FB6F894DEBF0FBECDBF2FB7F894C1
:100570008091590190915A01A0915B01B0915C0169
:100580002FBF4091030250910402609105027091C7
:1005900006028C019D01041B150B260B370BB901BC
:1005A000A801403D57406105710590F480910B0210
:1005B000C05CDE4F0FB6F894DEBF0FBECDBFDF913B
:1005C000CF911F910F91FF90EF90DF90CF90089502
:1005D0008093030290930402A0930502B093060255
:1005E0001092FE011092FD011092FC011092FB018D
:1005F0001092FA0162E08091FF010E941D0261E009
:1006000070E080E090E00E94730261E08091FF0161
:100610000E941D0260E08091FF010E94D101809143
:1006200000028551823020F58BE291E10197F1F7CC
:1006300062E08091FF010E941D0280910C0290E017
:100640008230910538F0880F991F880F991F059700
:100650000197F1F7F89480E00E948C006F3F7F4F84
:100660008F4F9F4F61F410920B02789480E0A0CFDF
:1006700064E170E080E090E00E947302D9CF81E0F5
:100680000E948C006F3F7F4F8F4F9F4F61F38E0111
:100690000F5F1F4F6E018FEBC81A8EEFD80A7801DB
:1006A00080E00E948C00F7016083718382839383D2
:1006B00081E00E948C00F7016483758386839783B1
:1006C000F8E0EF0EF11CEC14FD0451F7789430E0E3
:1006D00020E0F801C080D180E280F3804481558120
:1006E00066817781FFEFCF16DF06EF06FF0631F058
:1006F0004F3F8FEF58076807780719F410920B02E5
:10070000B5CFF90183E0F595E7958A95E1F7E650D5
:10071000FE4F8081880FC416D506E606F70610F155
:1007200080832F5F3F4F085F1F4F2832310589F6C6
:100730004091FE012091FA018091FB01280F33279F
:10074000331F8091FC01280F311D8091FD01820F24
:10075000932F911D99274817190681F681E0809300
:100760000B0226CF8160DCCF089590E080E00895F1
:10077000FB0101900020E9F73197AF01461B570BB1
:10078000DC01ED91FC910280F381E02D0994CF937F
:10079000DF93EC0160E08E810E94D10161E08E81E7
:1007A0000E94D10160E08E810E94D1018BE891E02E
:1007B0000197F1F7DF91CF910895CF92DF92EF92F9
:1007C000FF920F931F93CF93DF936C017C0187E01F
:1007D000E80EF11CD0E0C0E0062F10E0B8010C2EAE
:1007E00002C0759567950A94E2F76170F7018191EF
:1007F0007F010E94D1012196C430D10579F7C6014D
:10080000DF91CF911F910F91FF90EF90DF90CF90EC
:100810000C94C703CF92DF92EF92FF920F931F9336
:10082000CF93DF93EC01F62E642F8C810E94D101CF
:100830008D818F3F19F060E00E94D1010F2D10E0F3
:100840008F8584FF25C06E0187E0C80ED11CF12C76
:10085000E12CB8010E2C02C0759567950A94E2F759
:100860006170F60181916F010E94D101FFEFEF1AD3
:10087000FF0A88E0E816F10461F7CE01DF91CF911D
:100880001F910F91FF90EF90DF90CF900C94C703D2
:10089000B80184E0759567958A95E1F7CE010E94CD
:1008A000DD036F2DCE01DF91CF911F910F91FF904E
:1008B000EF90DF90CF900C94DD0340E0682F8DE047
:1008C00092E00C940A04CF93DF93823029F4909144
:1008D0001C02986090931C028093200210922102C7
:1008E00080E48093220280E18093230280E580935C
:1008F000240261E0809111020E941D028091120287
:100900008F3F19F061E00E941D0261E080911302A7
:100910000E941D02CDE0D2E09E012D503240809118
:100920001C0284FD0BC084E090E021962817390753
:1009300044F461E08E810E941D02EECF88E090E0D9
:10094000F4CF8BE39DE00197F1F760E08091110215
:100950000E94D10160E0809113020E94D101809138
:1009600012028F3F19F060E00E94D10180911C02B9
:1009700084FD39C063E08DE092E00E94DD03CBE4AA
:10098000D6E4CE010197F1F763E08DE092E00E949A
:10099000DD032197F1F763E08DE092E00E94DD0333
:1009A00083E592E00197F1F762E08DE092E00E942A
:1009B000DD0380911C0280620E945D0484E08093CC
:1009C0001D028CE00E945D0481E00E945D048BE3C7
:1009D0009FE10197F1F782E080931E0286E0DF91AC
:1009E000CF910C945D0480620E945D048BE496E4D8
:1009F0000197F1F780911C0280620E945D0483E5FB
:100A000092E00197F1F780911C0280620E945D04E0
:100A1000D0CF41E00E940A0481E090E008951F9247
:100A20000F920FB60F9211242F933F934F935F9322
:100A30006F937F938F939F93AF93BF93EF93FF93A6
:100A40008DE591E00E944201FF91EF91BF91AF913E
:100A50009F918F917F916F915F914F913F912F91D6
:100A60000F900FBE0F901F9018951F920F920FB608
:100A70000F9211242F938F939F93EF93FF93E09105
:100A80006D01F0916E018081E0917301F09174012C
:100A900082FD1BC09081809176018F5F8F732091C2
:100AA0007701821741F0E0917601F0E0E35AFE4FC2
:100AB000958F80937601FF91EF919F918F912F9168
:100AC0000F900FBE0F901F9018958081F4CF1F924A
:100AD0000F920FB60F9211242F933F938F939F93F2
:100AE000AF93BF938091590190915A01A0915B01FE
:100AF000B0915C013091540123E0230F2D3758F55C
:100B00000196A11DB11D209354018093590190932A
:100B10005A01A0935B01B0935C01809155019091C3
:100B20005601A0915701B09158010196A11DB11D28
:100B30008093550190935601A0935701B0935801AB
:100B4000BF91AF919F918F913F912F910F900FBEC9
:100B50000F901F90189526E8230F0296A11DB11D36
:100B6000D2CFEDE5F1E01382128288EE93E0A0E0AF
:100B7000B0E084839583A683B78384E291E0918378
:100B8000808385EC90E09587848784EC90E097875C
:100B9000868780EC90E0918B808B81EC90E0938B4A
:100BA000828B82EC90E0958B848B86EC90E0978B27
:100BB000868B118E128E138E148EEDE0F2E013826E
:100BC000128286E391E09183808387E084838FEFB4
:100BD000858386E0868385E0878384E0808783E061
:100BE000818782E08287138614861586168617868B
:100BF00081E00E946304AAEFB1E088E015968C932F
:100C000015978BE016968C931697E6EBF0E0E4913F
:100C10001796EC931797E2EAF0E0E4911896EC93BC
:100C2000189740E85EE360E070E01D964D935D9399
:100C30006D937C9350970895789484B5826084BDB9
:100C400084B5816084BD85B5826085BD85B58160D0
:100C500085BD80916E00816080936E00109281004E
:100C60008091810082608093810080918100816009
:100C700080938100809180008160809380008091CA
:100C8000B10084608093B1008091B0008160809356
:100C9000B00080917A00846080937A0080917A001D
:100CA000826080937A0080917A00816080937A00DC
:100CB00080917A00806880937A001092C10082E06F
:100CC0000E94630462E08091FF010E941D022FB721
:100CD000F8948091590190915A01A0915B01B091D3
:100CE0005C012FBF805D9740A109B1098093030289
:100CF00090930402A0930502B093060287E38093C9
:100D00000C02E0916D01F0916E0182E08083E09130
:100D10006901F0916A011082E0916B01F0916C0120
:100D20008FEC808310927501E0917101F091720156
:100D300086E08083E0916F01F09170018081806195
:100D40008083E0916F01F0917001808188608083E1
:100D5000E0916F01F0917001808180688083E09163
:100D60006F01F091700180818F7D80830BE31FE123
:100D70009AE0F92EC0E0D0E02FEDE22E68EE73E0AD
:100D800080E090E00E9473020E94A502882349F04F
:100D9000809100028B3028F08D3040F085518230F8
:100DA000A8F160E070E080EC9FE71CC06091FB015F
:100DB00070E090E080E00E949F082DEC3CEC4CEC51
:100DC0005DE30E942B094B015C016091FA0170E028
:100DD00090E080E00E949F089B01AC01C501B40136
:100DE0000E9402080E946E08D62E0E94A502882347
:100DF00041F0809100028C3009F49CC0C8F48B3023
:100E000081F160E070E080EC9FE753C06091FA01EF
:100E10007091FB0176276727762790E080E00E949B
:100E20009D082DEC3CEC4CEC5DE30E942B09DACFE5
:100E30008551823030F7C090FC016C2D70E0762F28
:100E4000662766277F778091FD01682B90E080E020
:100E50000E949D082DEC3CEC4CEC5DE30E942B09BC
:100E600085C06091FC0170E090E080E00E949D08E8
:100E70004B015C01C090FD01C7FE0AC0AC019B01A3
:100E800060E070E080E89FEB0E9401084B015C018C
:100E90006C2D6F7070E090E080E00E949F082DEC58
:100EA0003CEC4CEC5DE30E942B09A50194010E94EF
:100EB00002080E946E08C62E6D2D70E090E080E062
:100EC0000E949D089B01AC010E94980981110DC0F0
:100ED0006C2D70E090E080E00E949D089B01AC01C9
:100EE0000E949809882309F445C081E00E945D04AE
:100EF000C8010197F1F7E1E0809120028111E0E063
:100F0000E195F0E0E35FFD4F84898B5F80680E948C
:100F10005D046EE371E08DE092E00E94B8032097DB
:100F200009F42CCF0E942E01882309F427CF0E94B8
:100F3000000024CFC090FC016C2D70E090E080E0B8
:100F40000E949D084B015C016091FD016F7070E093
:100F500090E080E00E949F082DEC3CEC4CEC5DE3BF
:100F60000E942B09A50194010E940208C7FEA1CF8F
:100F700090589FCF8C2D6F2D0E94C109805D80936A
:100F80001701905D90931801E0921B018D2D0E9436
:100F9000C109805D80930701905D90930801E1E0B5
:100FA000809120028111E0E0E195F0E0E35FFD4FE8
:100FB000848980680E945D0460E171E08DE092E0C8
:100FC0000E94B803E0912002E230C8F4E150F0E062
:100FD000E35FFD4F848980680E945D0460E071E0FA
:100FE0008DE092E00E94B80364E471E08DE591E049
:100FF0000E94B80360E171E08DE591E08ECFE1E001
:10100000E6CF5058BB27AA270E9419080C94F10874
:101010000E94E30838F00E94EA0820F039F49F3F6C
:1010200019F426F40C94E0080EF4E095E7FB0C9418
:10103000DA08E92F0E94020958F3BA17620773070A
:101040008407950720F079F4A6F50C9424090EF492
:10105000E0950B2EBA2FA02D0B01B90190010C01C8
:10106000CA01A0011124FF27591B99F0593F50F4E0
:10107000503E68F11A16F040A22F232F342F442738
:10108000585FF3CF469537952795A795F040539530
:10109000C9F77EF41F16BA0B620B730B840BBAF000
:1010A0009150A1F0FF0FBB1F661F771F881FC2F76B
:1010B0000EC0BA0F621F731F841F48F4879577957F
:1010C0006795B795F7959E3F08F0B0CF9395880F39
:1010D00008F09927EE0F9795879508950E940A09C1
:1010E00088F09F5798F0B92F9927B751B0F0E1F0E9
:1010F000660F771F881F991F1AF0BA95C9F714C099
:10110000B13091F00E942409B1E008950C942409B3
:10111000672F782F8827B85F39F0B93FCCF38695D1
:1011200077956795B395D9F73EF49095809570952E
:1011300061957F4F8F4F9F4F0895E89409C097FBAB
:101140003EF490958095709561957F4F8F4F9F4F9E
:101150009923A9F0F92F96E9BB279395F6958795E2
:1011600077956795B795F111F8CFFAF4BB0F11F4A5
:1011700060FF1BC06F5F7F4F8F4F9F4F16C088234C
:1011800011F096E911C0772321F09EE8872F762F82
:1011900005C0662371F096E8862F70E060E02AF0C3
:1011A0009A95660F771F881FDAF7880F96958795AF
:1011B00097F9089597F99F6780E870E060E00895D7
:1011C0009FEF80EC089500240A941616170618065F
:1011D0000906089500240A9412161306140605063B
:1011E0000895092E0394000C11F4882352F0BB0FCC
:1011F00040F4BF2B11F460FF04C06F5F7F4F8F4F2F
:101200009F4F089557FD9058440F551F59F05F3F69
:1012100071F04795880F97FB991F61F09F3F79F018
:1012200087950895121613061406551FF2CF46959A
:10123000F1DF08C0161617061806991FF1CF86951C
:101240007105610508940895E894BB276627772700
:10125000CB0197F908950E943E090C94F1080E9471
:10126000E30838F00E94EA0820F0952311F00C946E
:10127000DA080C94E00811240C9425090E94020954
:1012800070F3959FC1F3950F50E0551F629FF001D9
:10129000729FBB27F00DB11D639FAA27F00DB11DF2
:1012A000AA1F649F6627B00DA11D661F829F22277B
:1012B000B00DA11D621F739FB00DA11D621F839F02
:1012C000A00D611D221F749F3327A00D611D231FD8
:1012D000849F600D211D822F762F6A2F11249F5726
:1012E00050409AF0F1F088234AF0EE0FFF1FBB1F29
:1012F000661F771F881F91505040A9F79E3F5105E8
:1013000080F00C94DA080C9425095F3FE4F3983ED2
:10131000D4F3869577956795B795F795E7959F5F91
:10132000C1F7FE2B880F911D9695879597F9089523
:101330000E949D09880B990B0895990F0008550F7D
:10134000AA0BE0E8FEEF16161706E807F907C0F04B
:1013500012161306E407F50798F0621B730B840B53
:10136000950B39F40A2661F0232B242B252B21F42D
:1013700008950A2609F4A140A6958FEF811D811DCD
:101380000895991B79E004C0991F961708F0961BE1
:10139000881F7A95C9F780950895EE0FFF1F059075
:0A13A000F491E02D0994F894FFCFBA
:1013AA0052482020203D2030302E30202520200099
:1013BA0054656D70203D2030302E302043202000AF
:1013CA00000000006401C400F100B1012201000123
:1013DA001401000000000905C400B503B4034572F6
:1013EA00726F720054656D706572617475726520F2
:0413FA003D20000092
:00000001FF
